:100000009020002001010000FD000000FD00000024
:1000100000000000000000000000000000000000E0
:10002000000000000000000000000000FD000000D3
:100030000000000000000000FD000000FD000000C6
:10004000FD000000FD000000FD000000FD000000BC
:10005000FD000000FD000000FD000000FD000000AC
:10006000FD000000FD000000FD000000FD0000009C
:10007000FD000000FD000000FD000000FD0000008C
:10008000FD000000FD000000F9100000FD00000070
:10009000FD0000000000000000000000FD00000066
:1000A000FD000000FD000000FD000000FD0000005C
:1000B0000000000010B5064C2378002B07D1054B3B
:1000C000002B02D0044800E000BF0123237010BDC4
:1000D0001400002000000000F4120000044B10B5D2
:1000E000002B03D00349044800E000BF10BDC04608
:1000F0000000000018000020F4120000FEE70000DD
:100100001F4A204B70B520499A4233D100211F4B22
:100110001F4A934231D3FF221E4B032193431E4AB1
:100120000C259360022208241C4B1D485A62C37898
:100130008B431343C370C378AB432343C370302056
:10014000184B9E7B8643103830439873987BA843A6
:1001500004439C73987B884302439A738023124A1A
:1001600051680B435360114B9847114B9847FEE77A
:1001700001CA01C38B42FBD3C8E702C3C9E7C0462B
:10018000F4120000000000201400002014000020E1
:100190008C0000200000000000ED00E0FC70004139
:1001A000005000410048004100400041E5110000BE
:1001B000BD04000070B50D002B0004005A1E9341D1
:1001C000421E9041094918404022094B9847290096
:1001D000084B6560201D9847002806DB0020064B71
:1001E000A382064B2361064BE36070BD2C12000016
:1001F0003F040000590D00000080FFFF7D02000059
:100200004502000030B50D002B0004005A1E93413A
:10021000421E904185B00849B3221840074B9847C9
:100220002B6801A901936B68201D4B60AB688B6044
:10023000034B984705B030BD2C1200003F0400006E
:10024000090F00007FB50400431E98410E00150001
:100250000749A322074BC0B298470023200001A9F9
:100260004B600C38044B01968D60984704B070BD0C
:100270002C1200003F040000050200007FB50400BE
:10028000431E98410E00150007498722074BC0B254
:1002900098470023200001A901930C38044B4E60BD
:1002A0008D60984704B070BD2C1200003F04000020
:1002B00005020000436910B5002B00D0984710BD1F
:1002C000836910B5002B00D0984710BD70B50D00A4
:1002D0002B0004005A1E9341421E904107493322CD
:1002E0001840074B984729002000064B9847064BBB
:1002F00000202360054B636070BDC04648120000BB
:100300003F04000035100000B5020000C1020000EB
:100310001FB514000200008901AB18800648143A8A
:100320005880039110001900044B0294984700284C
:1003300000D1200004B010BD0080FFFFB90B000009
:100340001FB514000200008901AB18800648143A5A
:100350005880039110001900044B0294984700281C
:1003600000D1200004B010BD0180FFFFB90B0000D8
:1003700070B50400431E98410D00084B0849C0B2F7
:100380005E22984729002000064B9847002803D199
:10039000054BA361054B636170BDC0463F0400007F
:1003A0005D120000850B00004103000011030000F6
:1003B000044B10B51C68044B98470100034B200008
:1003C000984710BD300000202104000039040000CF
:1003D000064B1A7AD2B21A725A7AD2B25A729A7AF0
:1003E000D2B29A72DA7AD2B2DA727047000400405E
:1003F000064B10B55A685A60054B9847054B98470D
:10040000054B9847FF20054B984710BD0040004121
:10041000D1030000490400008D0400009D04000089
:100420006423584310B5034B0321023098470A2335
:10043000584310BD551100000139FDD87047002800
:1004400000D100BE704700000D4B0E48196A1A6AB1
:100450000140920F92070A430B490A431A62022293
:1004600099690A431F219A611A7F0A401A77082264
:10047000D9681142FCD08022196A0A431A62704777
:10048000000800400000FF0F020300000221024AA2
:1004900093698B439361704700080040C00709D5FA
:1004A0008023054A5B00936083235B02536053788B
:1004B000DB09FCD17047C046000C004010B5074B6B
:1004C0009847FA20064BC00098471424054B013C7E
:1004D0009847002CFAD1200010BDC046F10F000053
:1004E000B1030000311100001F23012203409A4094
:1004F000400930B5C30195B2140C02290CD0C021BB
:10050000C90559184A600B4A0B492A435B189A627D
:100510000A4A22439A6230BDC021C90559188A602F
:1005200080220549D2052A435B189A62C02212062E
:10053000EFE7C0460000024000440041000002C056
:100540001F23C2B20340400970B5C0014C1C07D143
:10055000012218180F4BC01803789343037070BD25
:1005600001250D4CC9B20019C418EB40403426785F
:10057000C0182E432670303003782A4206D00F224E
:10058000090113401943C9B20170E8E70F229343F0
:100590001943F9E7404400410044004170B5042587
:1005A000084A094C563213781620AB43137007499A
:1005B000A047044B172057331A780549AA431A70ED
:1005C000A04770BD00440041410500000200160034
:1005D000020017002023054A116A0B431362044BE3
:1005E000044A5A80044A5A807047C04600040040BA
:1005F000000C0040174000001343000010B5044BEE
:1006000098470449044B05489847054B984710BD47
:10061000D5050000001400427103000034000020E2
:100620009D05000070B501210F4D0C20A847042145
:100630000E4A0F4C13780C208B4313700D49A047C2
:1006400080230D4EDB00336002212A20A8472A2098
:100650000A49A04780231B01336002212B20A847B1
:100660002B200749A04770BDE90400004C4400411D
:100670004105000003000C009400006003002A0004
:1006800003002B004023044A116A0B431362034BFF
:10069000034A5A807047C04600040040000C0040E6
:1006A0001840000010B5044B98470449044B054816
:1006B0009847054B984710BD85060000001800427A
:1006C000B501000054000020250600008023044AE4
:1006D0001B01116A0B431362024B034A5A80704795
:1006E00000040040000C00401B40000010B5054B0A
:1006F0009847054B9847054B020005491800054BE4
:10070000984710BDCD060000F51000006C000020D9
:10071000002C0042CD020000F8B5684BC02604272B
:1007200098470221F605664D77610800A847012128
:10073000644C02204942A047102338007361022113
:10074000A847012138004942A04720230221B36174
:100750000520A847012105204942A0478023022106
:1007600073610720A847012107204942A0470121C2
:100770000820A8470121544A0820483213784942EA
:10078000BB431370A04701210920A84701214E4A0D
:100790000920493213784942BB431370A047802394
:1007A000DB00B36102210A20A84701210A20494247
:1007B000A04701210B20A8470121434A0B204B32BF
:1007C00013784942BB431370A04780239B01736198
:1007D00002210D20A84701210D204942A047802376
:1007E000DB01B36102210E20A84701210E204942FE
:1007F000A04701210F20A8470121334A0F204F3283
:1008000013784942BB431370A04780235B02736196
:1008100002211020A847012110204942A04780232F
:100820009B02B36102211120A847012111204942F6
:10083000A0478023DB02736102211220A847012117
:1008400012204942A04780231B0373610221132019
:10085000A847012113204942A04701211520A8479C
:100860000121194B943655331A781520BA431A7062
:100870004942A047376002212220A84701212220B7
:100880004942A04780235B00336002212820A8470B
:10089000012128204942A04780239B003360022188
:1008A0002920A847012129204942A047074B984702
:1008B000074B9847074B9847F8BDC046F103000027
:1008C000E90400004105000000440041FD0500006E
:1008D000A5060000ED060000C3691942FCD170476F
:1008E00010B504000321034B984720688007C00F10
:1008F00010BDC046D9080000022210B503680321CC
:1009000093430360014B984710BDC046D9080000CF
:1009100010B5024B01600321984710BDD9080000B3
:10092000074B10B5C3189B0ADBB20020032B06D07F
:10093000E6220449044B920098470120404210BD32
:1009400000F8FFBD791200003F040000C02310B57D
:1009500042689B02134343600421014B984710BD3A
:10096000D9080000F7B5036805000F00554E0421B3
:1009700014000193B04701226B8B02219BB21742F6
:100980005FD00B420DD080212A7660884901014357
:10099000618061884C481A400140FD306180801AB6
:1009A000FEBD0422134215D06368002B04DD8023B2
:1009B00062885B011343638063881BB2002B02DAF9
:1009C0002800424B984763883F4A134063800220C7
:1009D0004042E5E763885B0517D506272388042195
:1009E000DB0928001F40B04780226B6AD201134008
:1009F000F1223B4313436B6204212800B047638814
:100A0000334A134063800020CAE763680193002BD8
:100A100009D163881BB2002B02DA28002B4B9847C0
:100A20006388294AEDE72B00A76828333A78042128
:100A30001A702800B047019B0137013BA760636033
:100A4000E1E70F42DFD06768002F38D05B0736D46C
:100A50008023019A1B05013F1A406760002F13D1C4
:100A6000002A15D06388184F1BB2002B08DA6B6878
:100A700028003B406B600421B0472800134B984787
:100A800063883B4063800DE0012F0BD1002A09D021
:100A900080236A68DB021343042128006B60B0479F
:100AA000002FDFD0A76804217B1CA3602800B0477B
:100AB0002B0028331B783B7002232B76A3E70223FD
:100AC0002B7684E7D9080000FFFEFFFF4D090000E8
:100AD000FFFBFFFFF7B50C00244B00900800984780
:100AE000E369234E234FC5B2DB0719D418236B43A8
:100AF000F3185A681C2303211A4020000192B847BA
:100B000002222368134205D020001B4B9847022184
:100B10002000B8470121019B20001943174B98473B
:100B200020000121B84718236B43F6187568200090
:100B30002900124B9847B368200063600421B8472E
:100B4000F368009AE36003232D0E2B409381AD07D9
:100B5000636A0B4AED0F1340AD031D436562042128
:100B60002000B847738A009AD381F7BD210900009D
:100B7000A8120000D9080000F908000011090000BF
:100B8000FFBFFFFF70B50400431E98410D00064AE9
:100B90000649074BC0B29847290020002561054B44
:100BA0009847002070BDC04607050000791200007C
:100BB0003F040000D50A0000F0B50400036985B0C9
:100BC00000935A4B5A4F01205A4A0191190002933F
:100BD000B8472069B822431E98410299C0B2D2009A
:100BE000B8470198544A431E98410299C0B2B84789
:100BF000802362885B001A4200D094E0019A019938
:100C000052881A434A80220061C961C2009A0421B5
:100C100052684A4E1343009A10005360B04725694A
:100C200001202B68464A02990393B8476368012B59
:100C30004CD1039B1B0149D580236A68DB02134317
:100C40006B6004212800B04780232288DB00570016
:100C50001A423FD06288D20702D56288134363806C
:100C600004212800B04780216A6A364BC9010A4036
:100C70003B4013438022120213436B62280004217D
:100C8000B0478023032220695B02017E013BC9B289
:100C9000002B01D01142F8D0280022002A4DA8478D
:100CA00000282BD1802703267F0063883B4229D070
:100CB000802322695B02117E013BC9B2002B23D045
:100CC0003142F8D022000098A847EEE76B681F4A2F
:100CD0001340B5E7638804219BB22800174E0293A6
:100CE000B047FF2202991740FE3A0A40174380227C
:100CF0006B6AD20113401F436F62BFE76388144AD7
:100D00001340638005B0F0BD019B5B881BB2002BD4
:100D100002DA00980F4B9847052063880C4A13406D
:100D200063804042EEE70620FBE7C04679120000F0
:100D30003F040000BF050000C1050000D908000005
:100D400094050000FE07000065090000FFFFFBFF9F
:100D5000FFFEFFFF4D0900005C4BF7B5CB189B0A67
:100D6000DBB207000D000024042B00D1584C2B00EF
:100D700038005A1E9341421E9041564E1840310091
:100D8000554A564B9847002C00D19BE0544AEB69DA
:100D90000092DB0718D41C23227803211A40280074
:100DA000504B0192984702222B68134206D028002C
:100DB0004D4B984702212800009B98470121019B39
:100DC00028001943494B9847009B01212800984768
:100DD0001C2223783D601340082B45D131000120AF
:100DE000434A3E4B98476278237812021A43A3780D
:100DF000E1781B041343090619433E4B28001940B0
:100E00003A4B98476279237912021A43A379E6791B
:100E10001B0413433606384A1E43384B32401343F3
:100E20006B600721009B28009847637A227A1B0297
:100E30001343A27A12041A43E37A1B0613436B622C
:100E40002B00627B30331A70EB69002BFCD1072337
:100E50001E40731E9E41002001363E71E37BA27B43
:100E60001B021343FB80FEBD31000120244A1B4BB3
:100E700098476278237812021A43A378E1781B041A
:100E80001343090619431B4B28001940174B984779
:100E90006279237912021A43A379E6791B0413437A
:100EA00036061E438023174A9B02324013436B6071
:100EB0002800009B07219847237B2B73637B3035E9
:100EC0002B70C4E70D204042CDE7C04600F8FFBDBF
:100ED000C012000079120000250900003F04000044
:100EE000D9080000D9080000F90800001109000025
:100EF00003090000FCFEFFFFBFDDFDFF4002020012
:100F0000EF080000BF1DFDFFF0B5046885B002903A
:100F1000037920000393431E98410D684E68304AC0
:100F2000304B0F00C0B230499847E26907231100E7
:100F3000194001911A424DD120002C4B98470028AE
:100F40004BD0019A0420237ED9B2034211D1019BD8
:100F50009A4217D30123194214D0002D29D0039BA4
:100F6000012B1ED82B7801350198A3620130019026
:100F700008E0A36A002E04D00398337001280CD82F
:100F80000136013249B2002916DBBB6801998B4258
:100F9000D8D89342D6D8019815E01B0A7370023650
:100FA000EFE72B789C4660466B7802351B020343C3
:100FB000DAE7029BDB88D7E7012313205B426383D8
:100FC0008133237640420323227E1A42FCD02376CB
:100FD00005B0F0BD04204042FAE71420FBE7C0460C
:100FE000850A00003F04000079120000E1080000BB
:100FF00010B5014B984710BD19070000094B0A4A6C
:10100000C3189B0A03331278DBB2002010B59A4252
:1010100006D05A220549064BFF329847012040422C
:1010200010BDC04600D4FFBD000000209412000097
:101030003F04000070B5284B050008000C009847DD
:1010400002002C61E37BDB09FCD12188890703D5F1
:101050002380E37BDB09FCD101232380E37BDB09D5
:10106000FCD1142050431D4B1B185A88197922803B
:101070002172D98861810C210A40082A20D1DA68BE
:101080001B69A261E361164B9C4201D1154B1D60A7
:10109000154BE418A40A1234E2B224060ED41F231E
:1010A0001A401E3B93401149114ACB67BFF34F8F43
:1010B000BFF36F8FC021490053501360002070BDF3
:1010C000002A06D1DA681B6992B29BB2228363833D
:1010D000D9E701204042F2E7FD0F000000000020A8
:1010E000002C00428800002000D4FFBD04E100E095
:1010F00000E100E0002070470C4B70B51C68012334
:101100002569AA7B1A4205D0AB732368002B01D056
:101110002000984702236A7B1A4205D0AB736368AC
:10112000002B01D02000984770BDC04688000020E9
:1011300070B58026FA20054D76002E60044C4000E4
:10114000A047FA202E604000A04770BD9C000060C0
:10115000B1030000002934D00123002210B48842DA
:101160002CD301242407A14204D2814202D20901D6
:101170001B01F8E7E400A14204D2814202D24900F7
:101180005B00F8E7884201D3401A1A434C08A0429A
:1011900002D3001B5C0822438C08A04202D3001B30
:1011A0009C082243CC08A04202D3001BDC08224347
:1011B000002803D01B0901D00909E3E7100010BC87
:1011C000704701B5002000F00BF802BD0029F8D0EF
:1011D00003B5FFF7C1FF0EBC4243891A1847C0464A
:1011E0007047C04670B500260C4C0D4D641BA41012
:1011F000A64209D1002600F06DF80A4C0A4D641B86
:10120000A410A64205D170BDB300EB589847013633
:10121000EEE7B300EB5898470136F2E7E012000022
:10122000E0120000E4120000E01200002E2E2F68F1
:10123000616C2F7372632F68616C5F7370695F6D8F
:101240005F73796E632E63002E2E2F68616C2F738F
:1012500072632F68616C5F70776D2E63002E2E2F86
:1012600068616C2F7372632F68616C5F6932635FB2
:101270006D5F73796E632E63002E2E2F68706C2F56
:10128000736572636F6D2F68706C5F736572636FE7
:101290006D2E63002E2E2F68706C2F74632F687074
:1012A0006C5F74632E6300000300000014002000D4
:1012B00000010000FF0000000000D70040420F00C6
:1012C0000C00010000000200000000000900FF0106
:1012D00004000000F8B5C046F8BC08BC9E46704744
:1012E000DD000000F8B5C046F8BC08BC9E4670475B
:0412F000B500000045
:1012F4000300600300000000320000007C000000D6
:041304003E000000A7
:00000001FF
