:100000002020002001010000FD000000FD00000094
:1000100000000000000000000000000000000000E0
:10002000000000000000000000000000FD000000D3
:100030000000000000000000FD000000FD000000C6
:10004000FD000000FD000000FD000000FD000000BC
:10005000FD000000FD000000FD000000FD000000AC
:10006000FD000000FD000000FD000000FD0000009C
:10007000FD000000FD000000FD000000FD0000008C
:10008000FD000000FD000000FD000000FD0000007C
:10009000FD0000000000000000000000FD00000066
:1000A000FD000000FD000000FD000000FD0000005C
:1000B0000000000010B5064C2378002B07D1054B3B
:1000C000002B02D0044800E000BF0123237010BDC4
:1000D0000000002000000000D8050000044B10B50F
:1000E000002B03D00349044800E000BF10BDC04608
:1000F0000000000004000020D8050000FEE700001A
:100100001F4A204B70B520499A4233D100211F4B22
:100110001F4A934231D3FF221E4B032193431E4AB1
:100120000C259360022208241C4B1D485A62C37898
:100130008B431343C370C378AB432343C370302056
:10014000184B9E7B8643103830439873987BA843A6
:1001500004439C73987B884302439A738023124A1A
:1001600051680B435360114B9847114B9847FEE77A
:1001700001CA01C38B42FBD3C8E702C3C9E7C0462B
:10018000D805000000000020000000200000002032
:10019000200000200000000000ED00E0FC700041A5
:1001A000005000410048004100400041710500003E
:1001B000B9020000044B10B51C68044B98470100BD
:1001C000034B2000984710BD1C00002025020000B2
:1001D0003D020000064B1A7AD2B21A725A7AD2B293
:1001E0005A729A7AD2B29A72DA7AD2B2DA727047C4
:1001F00000040040064B10B55A685A60054B9847FA
:10020000054B9847054B9847FF20054B984710BD75
:1002100000400041D50100004502000089020000B5
:10022000990200006423584310B5034B03210230A8
:1002300098470A23584310BDE10400000139FDD856
:10024000704700000D4B0E48196A1A6A0140920F60
:1002500092070A430B490A431A62022299690A4328
:100260001F219A611A7F0A401A770822D968114221
:10027000FCD08022196A0A431A62704700080040C5
:100280000000FF0F020300000221024A93698B4322
:100290009361704700080040C00709D58023054AD4
:1002A0005B00936083235B0253605378DB09FCD1CE
:1002B0007047C046000C004070B5054B802598473C
:1002C000044CAD00FA20044B256040009847F9E744
:1002D000D50400009C000060B50100001F2301222E
:1002E00003409A40400930B5C30195B2140C02296D
:1002F0000CD0C021C90559184A600B4A0B492A4342
:100300005B189A620A4A22439A6230BDC021C9052D
:1003100059188A6080220549D2052A435B189A62DF
:10032000C0221206EFE7C046000002400044004130
:10033000000002C01F224309DB011040C018034B1C
:100340001E3AC0180378934303707047404400413D
:10035000F8B55C4BC026042798470221F6055A4D94
:1003600008007761A847594C0220A04710233800A5
:1003700073610221A8473800A04720230221B361FE
:100380000520A8470520A04780230221736107208C
:10039000A8470720A04701210820A8474C4A082069
:1003A00048321378BB431370A04701210920A847A6
:1003B000474A092049321378BB431370A047802372
:1003C000DB00B36102210A20A8470A20A0470121CF
:1003D0000B20A8473E4A0B204B321378BB431370C7
:1003E000A0470C20A04780239B01736102210D20B0
:1003F000A8470D20A0478023DB01B36102210E2016
:10040000A8470E20A04701210F20A847304A0F20FF
:100410004F321378BB431370A04780235B02736194
:1004200002211020A8471020A04780239B02B3611F
:1004300002211120A8471120A0478023DB0273610D
:1004400002211220A8471220A04780231B037361BA
:1004500002211320A8471320A04701211520A847F7
:100460001B4A1520553213789436BB431370A047AE
:10047000174A162056321378BB431370A047144B0B
:10048000172057331A78BA431A70A04737600221F1
:100490002220A8472220A04780235B00336002214E
:1004A0002820A8472820A04780239B0033600221F2
:1004B0002920A8472920A0472A20A0472B20A04771
:1004C000F8BDC046F5010000DD0200003503000064
:1004D0000044004110B5014B984710BD5103000086
:1004E000002934D00123002210B488422CD30124E7
:1004F0002407A14204D2814202D209011B01F8E77C
:10050000E400A14204D2814202D249005B00F8E734
:10051000884201D3401A1A434C08A04202D3001B60
:100520005C0822438C08A04202D3001B9C08224393
:10053000CC08A04202D3001BDC082243002803D0D1
:100540001B0901D00909E3E7100010BC704701B591
:10055000002000F00BF802BD0029F8D003B5FFF72A
:10056000C1FF0EBC4243891A1847C0467047C046B7
:1005700070B500260C4C0D4D641BA410A64209D189
:10058000002600F019F80A4C0A4D641BA410A6427C
:1005900005D170BDB300EB5898470136EEE7B300C4
:1005A000EB5898470136F2E7C4050000C405000087
:1005B000C8050000C4050000F8B5C046F8BC08BC7A
:1005C0009E467047DD000000F8B5C046F8BC08BC88
:0805D0009E467047B5000000D3
:00000001FF
